{
  "contractName": "GenerateCertificate",
  "abi": [
    {
      "inputs": [
        {
          "internalType": "string",
          "name": "_video_id",
          "type": "string"
        },
        {
          "internalType": "string",
          "name": "_video_title",
          "type": "string"
        },
        {
          "internalType": "string",
          "name": "_video_author",
          "type": "string"
        },
        {
          "internalType": "string",
          "name": "_video_iso_timestamp",
          "type": "string"
        },
        {
          "internalType": "string",
          "name": "_owner_name",
          "type": "string"
        },
        {
          "internalType": "string",
          "name": "_owner_email",
          "type": "string"
        },
        {
          "internalType": "string",
          "name": "_owner_user_id",
          "type": "string"
        }
      ],
      "stateMutability": "nonpayable",
      "type": "constructor"
    },
    {
      "anonymous": false,
      "inputs": [
        {
          "indexed": true,
          "internalType": "address",
          "name": "oldOwner",
          "type": "address"
        },
        {
          "indexed": true,
          "internalType": "address",
          "name": "newOwner",
          "type": "address"
        }
      ],
      "name": "OwnerSet",
      "type": "event"
    },
    {
      "inputs": [],
      "name": "video_certificate",
      "outputs": [
        {
          "internalType": "string",
          "name": "video_id",
          "type": "string"
        },
        {
          "internalType": "string",
          "name": "video_title",
          "type": "string"
        },
        {
          "internalType": "string",
          "name": "video_author",
          "type": "string"
        },
        {
          "internalType": "string",
          "name": "video_iso_timestamp",
          "type": "string"
        }
      ],
      "stateMutability": "view",
      "type": "function"
    },
    {
      "inputs": [],
      "name": "video_owner",
      "outputs": [
        {
          "internalType": "string",
          "name": "Owner_name",
          "type": "string"
        },
        {
          "internalType": "string",
          "name": "Owner_email",
          "type": "string"
        },
        {
          "internalType": "string",
          "name": "Owner_user_id",
          "type": "string"
        }
      ],
      "stateMutability": "view",
      "type": "function"
    }
  ],
  "bytecode": "0x60806040523480156200001157600080fd5b5060405162000c5738038062000c578339818101604052810190620000379190620002f0565b336000806101000a81548173ffffffffffffffffffffffffffffffffffffffff021916908373ffffffffffffffffffffffffffffffffffffffff16021790555060008054906101000a900473ffffffffffffffffffffffffffffffffffffffff1673ffffffffffffffffffffffffffffffffffffffff16600073ffffffffffffffffffffffffffffffffffffffff167f342827c97908e5e2f71151c08502a66d44b6f758e3ac2f1de95f02eb95f0a73560405160405180910390a386600160000190805190602001906200010d929190620001c2565b508560018001908051906020019062000128929190620001c2565b50846001600201908051906020019062000144929190620001c2565b50836001600301908051906020019062000160929190620001c2565b5082600560000190805190602001906200017c929190620001c2565b50816005600101908051906020019062000198929190620001c2565b508060056002019080519060200190620001b4929190620001c2565b505050505050505062000600565b828054620001d09062000511565b90600052602060002090601f016020900481019282620001f4576000855562000240565b82601f106200020f57805160ff191683800117855562000240565b8280016001018555821562000240579182015b828111156200023f57825182559160200191906001019062000222565b5b5090506200024f919062000253565b5090565b5b808211156200026e57600081600090555060010162000254565b5090565b6000620002896200028384620004a5565b6200047c565b905082815260208101848484011115620002a857620002a7620005e0565b5b620002b5848285620004db565b509392505050565b600082601f830112620002d557620002d4620005db565b5b8151620002e784826020860162000272565b91505092915050565b600080600080600080600060e0888a031215620003125762000311620005ea565b5b600088015167ffffffffffffffff811115620003335762000332620005e5565b5b620003418a828b01620002bd565b975050602088015167ffffffffffffffff811115620003655762000364620005e5565b5b620003738a828b01620002bd565b965050604088015167ffffffffffffffff811115620003975762000396620005e5565b5b620003a58a828b01620002bd565b955050606088015167ffffffffffffffff811115620003c957620003c8620005e5565b5b620003d78a828b01620002bd565b945050608088015167ffffffffffffffff811115620003fb57620003fa620005e5565b5b620004098a828b01620002bd565b93505060a088015167ffffffffffffffff8111156200042d576200042c620005e5565b5b6200043b8a828b01620002bd565b92505060c088015167ffffffffffffffff8111156200045f576200045e620005e5565b5b6200046d8a828b01620002bd565b91505092959891949750929550565b6000620004886200049b565b905062000496828262000547565b919050565b6000604051905090565b600067ffffffffffffffff821115620004c357620004c2620005ac565b5b620004ce82620005ef565b9050602081019050919050565b60005b83811015620004fb578082015181840152602081019050620004de565b838111156200050b576000848401525b50505050565b600060028204905060018216806200052a57607f821691505b602082108114156200054157620005406200057d565b5b50919050565b6200055282620005ef565b810181811067ffffffffffffffff82111715620005745762000573620005ac565b5b80604052505050565b7f4e487b7100000000000000000000000000000000000000000000000000000000600052602260045260246000fd5b7f4e487b7100000000000000000000000000000000000000000000000000000000600052604160045260246000fd5b600080fd5b600080fd5b600080fd5b600080fd5b6000601f19601f8301169050919050565b61064780620006106000396000f3fe608060405234801561001057600080fd5b50600436106100365760003560e01c80633d517f781461003b578063931049321461005b575b600080fd5b61004361007c565b604051610052939291906104a3565b60405180910390f35b61006361022c565b60405161007394939291906104ef565b60405180910390f35b600580600001805461008d9061059f565b80601f01602080910402602001604051908101604052809291908181526020018280546100b99061059f565b80156101065780601f106100db57610100808354040283529160200191610106565b820191906000526020600020905b8154815290600101906020018083116100e957829003601f168201915b50505050509080600101805461011b9061059f565b80601f01602080910402602001604051908101604052809291908181526020018280546101479061059f565b80156101945780601f1061016957610100808354040283529160200191610194565b820191906000526020600020905b81548152906001019060200180831161017757829003601f168201915b5050505050908060020180546101a99061059f565b80601f01602080910402602001604051908101604052809291908181526020018280546101d59061059f565b80156102225780601f106101f757610100808354040283529160200191610222565b820191906000526020600020905b81548152906001019060200180831161020557829003601f168201915b5050505050905083565b600180600001805461023d9061059f565b80601f01602080910402602001604051908101604052809291908181526020018280546102699061059f565b80156102b65780601f1061028b576101008083540402835291602001916102b6565b820191906000526020600020905b81548152906001019060200180831161029957829003601f168201915b5050505050908060010180546102cb9061059f565b80601f01602080910402602001604051908101604052809291908181526020018280546102f79061059f565b80156103445780601f1061031957610100808354040283529160200191610344565b820191906000526020600020905b81548152906001019060200180831161032757829003601f168201915b5050505050908060020180546103599061059f565b80601f01602080910402602001604051908101604052809291908181526020018280546103859061059f565b80156103d25780601f106103a7576101008083540402835291602001916103d2565b820191906000526020600020905b8154815290600101906020018083116103b557829003601f168201915b5050505050908060030180546103e79061059f565b80601f01602080910402602001604051908101604052809291908181526020018280546104139061059f565b80156104605780601f1061043557610100808354040283529160200191610460565b820191906000526020600020905b81548152906001019060200180831161044357829003601f168201915b5050505050905084565b600061047582610550565b61047f818561055b565b935061048f81856020860161056c565b61049881610600565b840191505092915050565b600060608201905081810360008301526104bd818661046a565b905081810360208301526104d1818561046a565b905081810360408301526104e5818461046a565b9050949350505050565b60006080820190508181036000830152610509818761046a565b9050818103602083015261051d818661046a565b90508181036040830152610531818561046a565b90508181036060830152610545818461046a565b905095945050505050565b600081519050919050565b600082825260208201905092915050565b60005b8381101561058a57808201518184015260208101905061056f565b83811115610599576000848401525b50505050565b600060028204905060018216806105b757607f821691505b602082108114156105cb576105ca6105d1565b5b50919050565b7f4e487b7100000000000000000000000000000000000000000000000000000000600052602260045260246000fd5b6000601f19601f830116905091905056fea26469706673582212204d5bffa339c91e606484a64f7af581480fbdbf4c60242969aa2b760d2c00856564736f6c63430008060033",
  "immutableReferences": {},
  "source": "//SPDX-License-Identifier: GPL-3.0\n\npragma solidity >=0.7.0 <0.9.0;\n\n/**\n * @title Owner\n * @dev Set & change owner\n */\n \n struct Certificate {\n     string video_id;\n     string video_title;\n     string video_author;\n     string video_iso_timestamp;\n }\n \n  struct Owner {\n     string Owner_name;\n     string Owner_email;\n     string Owner_user_id;\n }\n \ncontract GenerateCertificate {\n    \n\n    address private owner;\n    Certificate public video_certificate;\n    Owner public video_owner;\n   \n    \n    // event for EVM logging\n    event OwnerSet(address indexed oldOwner, address indexed newOwner);\n    \n    // modifier to check if caller is owner\n    modifier isOwner() {\n        require(msg.sender == owner, \"Caller is not owner\");\n        _;\n    }\n    \n    constructor(string memory _video_id, string memory _video_title,string memory _video_author,string memory _video_iso_timestamp,string memory _owner_name,string memory _owner_email,string memory _owner_user_id) {\n        owner = msg.sender; // 'msg.sender' is sender of current call, contract deployer for a constructor\n        emit OwnerSet(address(0), owner);\n        \n        //initalising the certificate details struct certificate\n        video_certificate.video_id = _video_id;\n        video_certificate.video_title = _video_title;\n        video_certificate.video_author = _video_author;\n        video_certificate.video_iso_timestamp = _video_iso_timestamp;\n        \n        //initalising owner details\n        video_owner.Owner_name = _owner_name;\n        video_owner.Owner_email = _owner_email;\n        video_owner.Owner_user_id = _owner_user_id;\n        \n    }\n\n\n    // function getOwner() external view returns (address) {\n    //     return owner;\n    // }\n    \n    // function get_certificate_info() public view returns (struct video_certificate memory){\n    //     return video_certificate;\n    // }\n        \n}",
  "sourcePath": "/home/nilanjanmajumder/Documents/certificate-generator/video-certificate-project/video-certificate-project/contracts/GenerateCertificate.sol",
  "compiler": {
    "name": "solc",
    "version": "0.8.6+commit.11564f7e.Emscripten.clang"
  },
  "schemaVersion": "3.4.2",
  "updatedAt": "2021-07-29T19:01:27.369Z",
  "devdoc": {
    "kind": "dev",
    "methods": {},
    "version": 1
  },
  "userdoc": {
    "kind": "user",
    "methods": {},
    "version": 1
  }
}